:020000040800F2
:10000000000008206D050008071B0008091B0008F8
:100010000B1B00080D1B00080F1B00080000000050
:10002000000000000000000000000000111B00089C
:10003000131B000800000000151B0008171B000818
:10004000BD050008BD050008BD050008BD05000888
:10005000BD050008BD050008BD050008BD05000878
:10006000BD050008BD050008BD050008BD05000868
:10007000BD050008BD050008BD050008BD05000858
:10008000BD050008BD050008BD050008BD05000848
:10009000BD050008BD050008BD050008BD05000838
:1000A000BD050008BD050008BD050008BD05000828
:1000B000BD050008BD050008BD050008BD05000818
:1000C000BD050008BD050008BD050008BD05000808
:1000D000BD050008BD050008BD050008BD050008F8
:1000E000BD050008BD050008BD050008BD050008E8
:1000F000BD050008BD050008BD050008BD050008D8
:10010000BD050008BD050008BD050008BD050008C7
:10011000BD050008BD050008BD050008BD050008B7
:10012000BD050008BD050008BD050008BD050008A7
:10013000BD050008BD050008BD050008BD05000897
:10014000BD050008BD050008BD050008BD05000887
:10015000BD050008BD050008BD050008BD05000877
:10016000BD050008BD050008BD050008BD05000867
:10017000BD050008BD050008BD0500080000000021
:10018000BD050008BD050008BD050008BD05000847
:10019000BD050008BD050008BD050008BD05000837
:1001A000BD050008BD050008BD050008BD05000827
:1001B000BD050008BD050008BD050008BD05000817
:1001C000BD050008BD050008BD050008BD05000807
:1001D000BD050008BD050008BD050008BD050008F7
:1001E000BD050008BD050008BD050008BD050008E7
:0801F000BD050008BD05000873
:1001F80010B5054C237833B9044B13B10448AFF359
:1002080000800123237010BD480400200000000076
:10021800981C0008084B10B51BB108490848AFF3F3
:1002280000800848036803B910BD074B002BFBD0BA
:10023800BDE81040184700BF000000004C04002033
:10024800981C0008480400200000000053B94AB96F
:10025800002908BF00281CBF4FF0FF314FF0FF30C6
:1002680000F07EB9ADF1080C6DE904CE00F006F897
:10027800DDF804E0DDE9022304B070472DE9F0471A
:100288008C460E460446089D002B50D18A421746DC
:100298006CD9B2FA82FEBEF1000F0BD0CEF1200469
:1002A80020FA04F401FA0EF644EA060C02FA0EF7F4
:1002B80000FA0EF44FEA1749220CBCFBF9F01FFABA
:1002C80087F809FB10C642EA064600FB08F3B3426A
:1002D80009D9F61900F1FF3280F02281B34240F2C9
:1002E8001F8102383E44F61AA2B2B6FBF9F309FBA5
:1002F800136642EA064403FB08F8A04509D9E41945
:1003080003F1FF3280F00A81A04540F20781023BE9
:100318003C44C8EB040443EA00400021002D62D0AD
:1003280024FA0EF400232C606B60BDE8F0878B4242
:1003380007D9002D55D0002185E841000846BDE8C1
:10034800F087B3FA83F1002940F09080B34202D3DA
:10035800824200F2F880841A66EB03060120B44654
:10036800002D40D085E81010BDE8F08712B90127AC
:10037800B7FBF2F7B7FA87FEBEF1000F35D1F31BD2
:100388004FEA17481FFA87FC0121B3FBF8F0220C4B
:1003980008FB103642EA06460CFB00F3B34207D9C5
:1003A800F61900F1FF3202D2B34200F2CE801046B5
:1003B800F61AA2B2B6FBF8F308FB136642EA064443
:1003C8000CFB03FCA44507D9E41903F1FF3202D260
:1003D800A44500F2B5801346CCEB040443EA004080
:1003E8009CE729462846BDE8F087CEF1200106FAA9
:1003F8000EF307FA0EF720FA01F94FEA1748CE4034
:1004080049EA0309B6FBF8FA4FEA194408FB1A66E9
:100418001FFA87FC44EA06430AFB0CF29A4200FAE8
:100428000EF40AD9DB190AF1FF3180F087809A426D
:1004380040F28480AAF1020A3B449B1A1FFA89F908
:10044800B3FBF8F108FB113349EA034301FB0CF64F
:100458009E4207D9DB1901F1FF326BD29E4269D95E
:1004680002393B449B1B41EA0A418EE7C1F1200E49
:1004780022FA0EF48B40234320FA0EF706FA01F411
:100488004FEA134C26FA0EF63C43B6FBFCF9270C50
:100498000CFB19661FFA83F847EA064609FB08F7BA
:1004A800B74202FA01F200FA01FA08D9F61809F17E
:1004B800FF3041D2B7423FD9A9F102091E44F61BC9
:1004C800A0B2B6FBFCF40CFB146640EA064704FB3A
:1004D80008F8B84507D9FF1804F1FF3028D2B84505
:1004E80026D9023C1F4444EA0940C8EB0707A0FB91
:1004F80002894F4544464E4614D329D065B3BAEB1A
:10050800040367EB060707FA0EFECB40CF404EEA1E
:10051800030385E888000021BDE8F0871346F8E664
:100528001046E0E6B8EB020469EB03060138E5E79C
:100538000446D8E7114695E78146C0E78A467CE736
:10054800023B3C4448E708460AE702383E442FE7A6
:10055800C245E7D33E46D1E72946BDE8F08700BF4C
:10056800704700BFDFF834D0002103E00C4B5B5824
:10057800435004310B480C4B42189A42F6D30B4AAD
:1005880002E0002342F8043B094B9A42F9D301F0F8
:10059800C1FA01F0DFFA00F053F8704700000820B4
:1005A8000C1D00080000002048040020480400201A
:1005B800D8040020FEE7000070B5204CACB001253F
:1005C8000826236B08A843F010032363236B03F06A
:1005D80010030093009B236B43F010032363236BEA
:1005E800199503F010030193019B4023089300F031
:1005F80093FD236C03A943F000432364236CA4F503
:100608002054059503F00043204607960293029B69
:10061800022303930493069300F0DEF903A920460E
:100628000395079600F0D8F92A460021532000F0D8
:1006380079F9532000F0AEF92CB070BD00380240B3
:1006480070B594B0BFF34F8FBFF36F8F4F4B00213E
:10065800C3F850125A6942F400325A61BFF34F8FFF
:10066800BFF36F8FC3F88410BFF34F8FD3F8801098
:10067800C1F34E32C1F3C901500143F6E07404409E
:10068800084644EA807610F1FF30404DC3F86062B6
:10069800F7D212F1FF32EFD2BFF34F8F6B6943F4F9
:1006A80080336B61BFF34F8FBFF36F8F00F000F99A
:1006B800374B022607241A6C07A842F080521A64A6
:1006C8001B6C03F080530093009B324B1A6842F472
:1006D80040421A601B680D9603F440431196139428
:1006E8000193019B012307934FF4803308934FF440
:1006F80080030E9319230F934FF4D8731093092393
:10070800129300F091FA00B1FEE700F055FA00B13B
:10071800FEE70F230490214602A802934FF4A0534A
:10072800039605934FF48053069300F039FC054671
:1007380000B1FEE73046184C00F034F84FF4165379
:10074800164A2046A560E5602561A561E56184E853
:100758000C000C23636101F0A0F918B1304600F0D9
:1007680073F8FEE720460E4CFFF726FFA5882068A1
:100778000722A37907A907908DF822304FF6FF7357
:100788000548ADF8205000F082FFF0E700ED00E0EA
:10079800003802400070004064040020007C0040E3
:1007A800B01C000870B504468AB050B9234B1A6BC8
:1007B80042F004021A631B6B03F004030193019BCC
:1007C80025E001280AD11D4B1A6B42F002021A6378
:1007D8001B6B03F002030293029B18E002280AD164
:1007E800164B1A6B42F002021A631B6B03F00203EA
:1007F8000393039B0BE0032809D1104B1A6B42F4B7
:1008080000721A631B6B03F400730493049B0C4B74
:1008180005A90C4D53F82460012355F824000693CC
:1008280002230596089300F0D7F80022B1B255F8D4
:10083800240000F0BDF90AB070BD00BF00380240C6
:10084800B81C000800000020044B002233F82010D8
:10085800034B53F8200000F0ABB900BFB81C0008E8
:10086800000000207047000038B50E4B05460E4AC0
:1008780018784FF47A73B3FBF0F31068B0FBF3F019
:1008880000F094F8044658B90F2D09D802462946B5
:100898004FF0FF3000F046F8044B20461D6038BD8D
:1008A800012038BD1400002018000020100000208E
:1008B80008B5094B03201A6842F400721A601A68D6
:1008C80042F480721A6000F01BF80F20FFF7CCFF8B
:1008D800FFF7C8FF002008BD003C0240034A044956
:1008E800136809780B441360704700BFD4040020D4
:1008F80014000020014B1868704700BFD404002082
:10090800074A0002D36800F4E06023F4E0631B04A4
:100918001B0C43F0BF6343F400330343D3607047B9
:1009280000ED00E0194BDB68C3F3022330B5C3F1D7
:1009380007041D1D042C28BF0424062D4FF00105B3
:100948008CBF033B002305FA04F4002804F1FF34AC
:1009580004EA010404FA03F405FA03F303F1FF338C
:1009680002EA030242EA04024FEA021205DA00F040
:100978000F00D2B2064B1A5430BD00F16040D2B21B
:1009880000F5614080F8002330BD00BF00ED00E0B5
:1009980014ED00E04209012300F01F0003FA00F003
:1009A800014B43F82200704700E100E00138B0F144
:1009B800807F0AD2064BF021064A5860002082F850
:1009C8002310072298601A6070470120704700BF03
:1009D80010E000E000ED00E02DE9F04F0B6885B075
:1009E8006F4E01930023DFF8C0C1B646DFF8BC8123
:1009F8000122019C9A4032EA040440F0C9804C6804
:100A080024F01009B9F1020F14D14FEAD30A03F008
:100A1800070B0F2500EB8A0A4FEA8B0BDAF82070D8
:100A280005FA0BF527EA05050F6907FA0BF72F43B7
:100A3800CAF820704FEA430A0325076804F0030B3D
:100A480005FA0AF509F1FF390BFA0AFBED43B9F18A
:100A5800010F07EA05074BEA0707076012D88768FE
:100A680005EA0709CF6807FA0AF747EA0907C4F34E
:100A78000019876009FA03F9476827EA020749EA73
:100A880007074760C7683D408F6807FA0AF73D4384
:100A9800C560E5007CD5DCF8445023F0030703F07B
:100AA800030A4FF00F0945F4804507F180474FEAE4
:100AB8008A0ACCF8445007F59C37DCF8445005F412
:100AC80080450395039D09FA0AF5D7F808B02BEA83
:100AD8000509344DA84224D005F58065A84222D0E6
:100AE80005F58065A84220D005F58065A8421ED08E
:100AF80005F58065A8421CD040451CD005F5006569
:100B0800A8421AD005F58065A84218D005F5806579
:100B1800A84216D005F58065A84214BF0A25092504
:100B280010E000250EE001250CE002250AE003256F
:100B380008E0042506E0052504E0062502E007256F
:100B480000E0082505FA0AF514F4803F45EA09058E
:100B5800BD606FEA020735680CBF3D40154314F4C9
:100B6800003FCEF80050DEF804500CBF3D4015435E
:100B780014F4801F7560B5680CBF3D401543A4028E
:100B8800CEF80850DEF80C5054BF3D401543F560D0
:100B98000133102B7FF42CAF05B0BDE8F08F00BFF8
:100BA800003C0140000002400038024000140240AE
:100BB80002B9090481617047194B1A6C42F08052DE
:100BC80073B51A641B6C174C03F0805325460193C8
:100BD800019B236843F480332360FFF78BFE0646AE
:100BE8006B68104CDA0307D4FFF784FE801BB0F55E
:100BF8007A7FF5D9032011E0236843F4003323609A
:100C0800FFF778FE054663689B0306D4FFF772FE7C
:100C1800401BB0F57A7FF6D9ECE7002002B070BD32
:100C280000380240007000402DE9F341044608B93D
:100C3800012081E10368D80703D42368990751D4B8
:100C480098E0974B9A6802F00C02042A07D09A6839
:100C580002F00C02082A0AD15B685A0207D5904BA9
:100C68001B689B03E9D56368002BE6D1E0E763685E
:100C78008B4DB3F5803F13D05BB92B6823F48033D9
:100C88002B602B6823F480232B60FFF733FE064686
:100C980024E0B3F5A02F2B6806D143F480232B6002
:100CA8002B6843F4803305E023F480332B602B68F2
:100CB80023F480232B60FFF71DFE794D06462B6831
:100CC8009F03BAD4FFF716FE801B6428F7D90320C8
:100CD80032E1FFF70FFE801B6428F8D82B689803D1
:100CE800F7D4AAE76E4B9A6812F00C0F07D09A68EF
:100CF80002F00C02082A11D15B6859020ED4684B25
:100D08001A68920702D5E268012A91D11A68216906
:100D180022F0F80242EAC1021A602BE0E368604D53
:100D2800C3B12B6843F001032B60FFF7E3FD0646D0
:100D38002B685B4A9F0705D4FFF7DCFD801B022860
:100D4800F6D9C4E71368216923F0F80343EAC1031D
:100D580013600FE02B6823F001032B60FFF7CAFD37
:100D680006462B68980705D5FFF7C4FD801B0228A7
:100D7800F7D9ACE72368190703D423685A0723D4A3
:100D88008AE06369464D7BB16B6F43F001036B6783
:100D9800FFF7B0FD06466B6F9B07EED4FFF7AAFD81
:100DA800801B0228F7D992E76B6F23F001036B676A
:100DB800FFF7A0FD06466B6F9F07DED5FFF79AFD8C
:100DC800801B0228F7D982E7354B1A6CD0000AD469
:100DD8001A6C012642F080521A641B6C03F080538F
:100DE8000193019B00E000262E4D2B68D90504D500
:100DF800A3682B4D012B10D124E02B6843F480739A
:100E08002B60FFF777FD07462B68DA05F0D4FFF76C
:100E180071FDC01B6428F7D959E76BB92B6F41F2F4
:100E2800883823F001032B672B6F23F004032B670B
:100E3800FFF760FD074626E0052B2B6F06D143F030
:100E480004032B672B6F43F0010305E023F0010334
:100E58002B672B6F23F004032B6741F28835FFF7CC
:100E680049FD0F4F80463B6F9B070FD4FFF742FDAC
:100E7800C8EB0000A842F6D929E7FFF73BFDC01BE5
:100E880040453FF624AF2B6F9807F6D426B1044AA5
:100E9800136C23F080531364A2692AB900204BE035
:100EA8000038024000700040254DAB6803F00C0389
:100EB800082B3FF4BDAE2B68022A23F080732B6009
:100EC8002ED1FFF717FD07462B681D4E990105D552
:100ED800FFF710FDC01B0228F6D9F8E6E269236A7D
:100EE8001343626A43EA8213E26A43EA0263226BAB
:100EF80043EA0272A36A5B08013B42EA0343736058
:100F0800336843F080733360FFF7F4FC04463368BA
:100F18009A01C3D4FFF7EEFC001B0228F7D9D6E6E6
:100F2800FFF7E8FC04462B689B01B7D5FFF7E2FC06
:100F3800001B0228F7D9CAE602B0BDE8F08100BF5D
:100F480000380240134908B58B6803F00C03042BE2
:100F58001BD0082B1BD14A684B68496802F03F0236
:100F680013F48003C1F388111ABF0B4800230B4800
:100F7800A1FB0001FFF76AF9064B5B68C3F3014365
:100F880001335B00B0FBF3F008BD034808BD03481C
:100F980008BD00BF0038024040787D010024F400FD
:100FA8002DE9F0410D46044610B90120BDE8F08155
:100FB800454A136803F00F038B4203D32268960750
:100FC8000BD41EE0136823F00F030B431360136860
:100FD80003F00F039942E8D1F0E712F0040F3B4BFE
:100FE80003D0996841F4E0519960100703D59968D6
:100FF80041F460419960996821F0F000A1680143CB
:101008009960D10706D4304A136803F00F039D4254
:101018002AD333E062682D4B012A196802D111F4F2
:10102800003F06E0022A02D111F0007F01E011F032
:10103800020FBAD0996841F28838244E21F0030192
:101048000A439A60FFF756FC0746B368626803F0E4
:101058000C03B3EB820FD6D0FFF74CFCC01B404506
:10106800F3D90320BDE8F081136823F00F032B4365
:101078001360136803F00F039D4296D121684A0755
:1010880006D51248836823F4E052E368134383606B
:101098000B0707D50D4A2169936823F4604343EA97
:1010A800C1039360FFF74EFF084B094A9B68C3F3DF
:1010B8000313D35CD840074B18600F20FFF7D4FB0D
:1010C8000020BDE8F08100BF003C0240003802402B
:1010D800D91C000818000020044B054A9B68C3F37C
:1010E8008223D35C034A1068D84070470038024016
:1010F800E91C000818000020044B054A9B68C3F34C
:101108004233D35C034A1068D84070470038024025
:10111800E91C00081800002003682DE9F74313F0C4
:10112800010604460BD0484A916821F400019160F9
:10113800466B91683143B6FA86F67609916013F4E6
:10114800002512D04049E56BD1F88C20B5F5801FF9
:1011580022F4401208BF012642EA050216BFB5FA7A
:1011680085F500256D09C1F88C20D80211D53648BF
:10117800216CD0F88C20B1F5800F22F4400242EAAD
:101188000102C0F88C2003D0002908BF012500E027
:10119800012613F0807F18BF0126990661D52A4BD6
:1011A8002A4F1A6C42F080521A641B6C03F0805369
:1011B8000193019B3B6843F480733B60FFF79AFB04
:1011C80080463B68DA0507D4FFF794FBC8EB0000BC
:1011D8006428F6D9032024E21B4F3B6F13F44073B5
:1011E8000FD1226B02F44073B3F5407F164B2FD119
:1011F800996821F4F81022F0704121F440710143FC
:1012080029E0226B02F440729342EAD03B6F3A6FB6
:1012180023F4407342F480323A673A6F22F4803202
:101228003A673B673B6FDB07DBD5FFF763FB41F2B0
:10123800883980463B6F9807D3D4FFF75BFBC8EB30
:1012480000004845F6D9C5E7003802400070004064
:10125800996821F4F8119960C2F30B02196F0A43D7
:101268001A672368D9060CD5BA4AD2F88C1021F02F
:101278008071C2F88C10D2F88C00A16B0143C2F8BF
:101288008C105A0408D5B348D0F8902022F4403185
:10129800626E0A43C0F890201F0408D5AD48D0F804
:1012A800902022F44021A26E0A43C0F89020D8036F
:1012B80008D5A848D0F8902022F44011E26E0A43DD
:1012C800C0F89020990308D5A248D0F8902022F4BD
:1012D8004001226F0A43C0F890205A0608D59D485D
:1012E800D0F8902022F00301626C0A43C0F89020E5
:1012F8001F0608D59748D0F8902022F00C01A26C60
:101308000A43C0F89020D80508D59248D0F8902014
:1013180022F03001E26C0A43C0F89020990508D504
:101328008C48D0F8902022F0C001226D0A43C0F802
:1013380090205A0508D58748D0F8902022F44071AB
:10134800626D0A43C0F890201F0508D58148D0F87F
:10135800902022F44061A26D0A43C0F89020D8047E
:1013680008D57C48D0F8902022F44051E26D0A4319
:10137800C0F89020990408D57648D0F8902022F437
:101388004041226E0A43C0F890205A0208D571489D
:10139800D0F8902022F08061A26F0A43C0F8902014
:1013A8009F020CD56B48E16FD0F89020B1F1006F27
:1013B80022F0006208BF01250A43C0F890205803B4
:1013C80008D56448D0F8902022F04071626F0A4333
:1013D800C0F89020190209D55E48D0F8902022F074
:1013E8008051D4F880200A43C0F890205A0109D5CA
:1013F8005848D0F8902022F00051D4F884200A43AD
:10140800C0F890201F0109D55248D0F88C2022F04E
:101418000071D4F888200A43C0F88C20D80009D578
:101428004C48D0F88C2022F08061D4F88C200A43F4
:10143800C0F88C20012E06D0B3F1007F03D0012D17
:1014480040F0A78088E0434E336823F08063336020
:10145800FFF750FA804633683E4F190106D5FFF76B
:1014680049FAC8EB00006428F5D9B3E62368DA071F
:1014780012D5626B82B9A068D7F884106668000735
:10148800D7F8842001F4403140EA861002F07062F7
:1014980001430A43C7F884201E0303D5E26BB2F563
:1014A800801F05D0D8021ED5226CB2F5800F1AD144
:1014B800284AE668D2F8840067683606D2F88410AD
:1014C80000F4403046EA871601F0E041304301431A
:1014D800C2F88410D2F88C10606A21F01F0101381C
:1014E8000143C2F88C10D90111D51A4F2069D7F8D9
:1014F800841066680004D7F8842001F0706140EA1F
:10150800861002F0E04201430A43C7F884209A019A
:101518000DD5236962681B0443EA8213E26843EA33
:101528000263A26843EA02730A4AC2F88430094E89
:10153800336843F080633360FFF7DCF907463368AC
:101548001B013FF57CAFFFF7D5F9C01B6428F6D91E
:1015580040E600BF00380240334D2B6823F080532B
:101568002B60FFF7C7F906462B689F0013D4256840
:10157800280316D4E90217D4AA0235D42A4C2368C2
:1015880043F080532360FFF7B5F9054623689B00B5
:1015980041D5002045E0FFF7ADF9801B6428E3D969
:1015A80018E6E36B1BB1E5E7236C002BE4D11E4B77
:1015B800A069D3F8881066690006D3F8882001F47A
:1015C800403140EA861002F0E04201430A43C3F882
:1015D8008820D3F88C20A16A22F4F852013942EA13
:1015E8000122C3F88C20C7E7E36FB3F1006FC5D1C0
:1015F8000D48216AD0F8882065690904D0F8883038
:1016080002F0706241EA851103F0E0430A43134394
:10161800C0F88830B2E7FFF76DF9401B6428B5D9E8
:10162800D8E503B0BDE8F083003802402DE9F04169
:10163800069D04460F46164698462168CA6937EA49
:1016480002030CBF01220022B2421DD16B1CF5D04F
:101658009DB9236803201A6822F4D0721A609A6828
:1016680022F001029A60202384F8693084F86A30F5
:10167800002384F86830BDE8F081FFF73BF9C8EB38
:1016880000008542D9D8E4E70020BDE8F0812DE9C3
:10169800F3411F4690F8693004460D46202B9046CA
:1016A8004BD1002947D0002A45D090F86830012B4B
:1016B80043D0012380F868300023C366212380F8D3
:1016C8006930FFF717F90646A4F85080A4F852804D
:1016D800B4F8522092B202B3B4F852300022009704
:1016E8008021013B20469BB2A4F852303346FFF7D5
:1016F8009DFF08B1032021E0A3682268B3F5805F4D
:1017080007D123692BB935F8023BC3F30803936269
:10171800DEE72B7801359362DAE7009733464021FC
:101728002046FFF783FF0028E4D1202384F86800CF
:1017380084F8693002E0012000E0022002B0BDE830
:10174800F081000038B504460568C3692269A168BC
:101758002868114362690A4342EA0301884A024041
:10176800A0690A432A606A6822F44051E2680A4381
:10177800216A6A600143AA6822F430620A43AA60B7
:10178800804A954207D102F594327F49D2F89020D9
:1017980002F0030209E07D4A95420BD102F5FA32C4
:1017A8007B49D2F8902002F00C02B3F5004F8A5C16
:1017B80073D0B6E0774A95420DD102F5F832D2F8E7
:1017C800902002F03002102A00F086805DD9202A8D
:1017D80078D0302A0EE0704A95420DD102F5F632E3
:1017E800D2F8902002F0C002402A75D04DD9802A44
:1017F80068D0C02A7CD087E0684A95420FD102F5AC
:10180800F432D2F8902002F44072B2F5807F63D0AF
:101818003BD9B2F5007F55D0B2F5407FEAE7604A80
:10182800954212D102F59232D2F8902002F4406229
:10183800B2F5806F50D002D8002A3DD064E0B2F5EE
:10184800006F3FD0B2F5406FD4E7564A95420FD1AA
:1018580002F5E032D2F8902002F44052B2F5805FEF
:101868003AD012D9B2F5005F2CD0B2F5405FC1E78B
:101878004D4A954248D102F5DE32D2F8902002F462
:101888004042B2F5804F27D001D87AB13CE0B2F59A
:10189800004F17D0B2F5404FACE7082A37D8DFE839
:1018A80002F0080E14361E3636362A00B3F5004FFD
:1018B80040D1FFF711FC14E0B3F5004F3DD1FFF71D
:1018C8001BFC0EE0B3F5004F3AD16068420802F104
:1018D800F47303F5904312E0B3F5004F39D1FFF7E5
:1018E80031FB63685A0802EB4000B0FBF3F308E0F1
:1018F800B3F5004F37D16068430803F58033B3FB75
:10190800F0F39BB2002004E0B3F5004F35D101207D
:10191800002323F00F01C3F3420322680B43D36073
:1019280038BD082A29D8DFE802F005080B28142852
:1019380028281E00FFF7D0FB0DE0FFF7DDFB0AE0CB
:1019480061684A0802F5740303F51053B3FBF1F319
:101958000FE0FFF7F7FA636800EB5300B0FBF3F012
:1019680080B2E86007E06268530803F50043B3FB00
:10197800F2F39BB2EB60002038BD012038BD00BFF8
:10198800F369FFEF00100140C81C00080044004044
:10199800CC1C000800480040004C004000500040AB
:1019A8000014014000780040007C0040436ADA07D8
:1019B80010B506D50468626822F40031826A0A43C9
:1019C80062609C0706D50468626822F48031C26AA6
:1019D8000A436260590706D50468626822F48021C8
:1019E800026B0A4362601A0706D50468626822F42B
:1019F8000041426B0A436260DC0606D50468A268AF
:101A080022F48051826B0A43A260990606D50468C5
:101A1800A26822F40051C26B0A43A2605A0610D58C
:101A28000168046C4A68B4F5801F22F4801242EA07
:101A380004024A6005D14A6822F4C004426C224379
:101A48004A601B0606D501684B6823F40022836CA4
:101A580013434B6010BD37B500250446C566FEF735
:101A680049FF226803461268120708D42023002081
:101A780084F8693084F8680084F86A300BE06FF005
:101A88007E424FF40011204600922A46FFF7CEFD11
:101A98000028EBD0032003B030BD10B5044660B376
:101AA80090F8693003F0FF021BB980F86820FEF750
:101AB80083FD22682423204684F86930136823F0C4
:101AC80001031360FFF73EFE012816D0636A13B1C5
:101AD8002046FFF76BFF236820465A6822F490429D
:101AE8005A609A6822F02A029A601A6842F0010243
:101AF800BDE810401A60FFF7AEBF012010BD704767
:101B0800FEE7FEE7FEE7FEE7704770477047FEF71F
:101B1800E5BE00000C4B00211A6842F001021A6071
:101B280099601A6822F0847222F480321A60074A97
:101B38005A601A6822F480221A604FF00062D96055
:101B4800034B9A60704700BF0038024010300024F1
:101B580000ED00E070B50F4E0F4D761BB61018BFA4
:101B6800002405D0013455F8043B9847A642F9D122
:101B78000A4E0B4D761B00F08BF8B61018BF0024E8
:101B880006D0013455F8043B9847A642F9D170BDF8
:101B980070BD00BF001D0008001D0008081D0008DA
:101BA800001D0008024B13B1024800F005B8704749
:101BB80000000000CD1B0008002301461A46184605
:101BC80000F014B838B5074D074C2C1BA41005D0ED
:101BD800013C55F8043D9847002CF9D1BDE8384040
:101BE80000F05CB80C1D0008081D00082DE9F0473E
:101BF800254C2568D5F848410646884692469946B8
:101C0800C4B360681F2817DC431C76B104EB800559
:101C18000122C5F888A0D4F8881182401143022E09
:101C2800C4F88811C5F808911ED00230636044F8E2
:101C380020800020BDE8F087144B03B34FF4C87030
:101C4800AFF300800446D0B1D5F84831002780E8CA
:101C58008800C5F8484138460123C4F88871C4F89B
:101C68008C71002EE1D0D1E7D4F88C110A43C4F866
:101C78008C21DAE705F5A674C5F84841C1E74FF0AD
:101C8800FF30BDE8F08700BFF41C0008000000002A
:101C9800F8B500BFF8BC08BC9E467047F8B500BF51
:081CA800F8BC08BC9E46704721
:101CB00031323334353600004000000002000000AD
:101CC00002000000080000000104020800101010CB
:101CD0000410101002101010080000000000000096
:101CE00000010203040607080900000000010203C6
:081CF0000400000020000020A8
:081CF8008CE5FF7F01000000F4
:081D0000AD1B00081D020008E4
:041D0800F9010008D5
:101D0C00000802400004024000040240002402408B
:101D1C0010000000010000000024F400000000008E
:101D2C00000000000C03002074030020DC030020E2
:101D3C000000000000000000000000000000000097
:101D4C000000000000000000000000000000000087
:101D5C000000000000000000000000000000000077
:101D6C000000000000000000000000000000000067
:101D7C000000000000000000000000000000000057
:101D8C000000000000000000000000000000000047
:101D9C000000000000000000000000000000000037
:101DAC000000000000000000000000000000000027
:101DBC000000000000000000000000000000000017
:101DCC000000000000000000010000000000000006
:101DDC000E33CDAB34126DE6ECDE05000B000000CB
:101DEC0000000000000000000000000000000000E7
:101DFC0000000000000000000000000000000000D7
:101E0C0000000000000000000000000000000000C6
:101E1C0000000000000000000000000000000000B6
:040000050800056D7D
:00000001FF
